:020000040800F2
:100000002804002045140008AD020008AF020008D3
:10001000B3020008B7020008BB020008000000009D
:10002000000000000000000000000000BF02000807
:10003000C102000800000000C3020008C502000859
:100040005F1400085F1400085F1400085F140008C4
:100050005F1400085F1400085F1400085F140008B4
:100060005F1400085F1400085F1400085F140008A4
:100070005F1400085F1400085F1400085F14000894
:100080005F1400085F1400085F1400085F14000884
:100090005F1400085F1400085F1400085F14000874
:1000A0005F1400085F1400085F1400085F14000864
:1000B0005F1400085F1400085F1400085F14000854
:1000C0005F1400085F1400085F1400085F14000844
:1000D0005F1400085F1400085F1400085F14000834
:1000E0005F1400085F1400085F1400085F14000824
:1000F0005F1400085F1400085F1400085F14000814
:100100005F1400085F1400085F1400085F14000803
:100110005F1400085F1400085F1400085F140008F3
:100120005F1400085F1400085F1400085F140008E3
:100130005F1400085F1400085F1400085F140008D3
:100140005F1400085F1400085F1400085F140008C3
:100150005F1400085F1400085F1400085F140008B3
:100160005F1400085F1400085F1400085F140008A3
:100170005F1400085F1400085F1400085F14000893
:100180005F1400085F140008DFF80CD001F06CF970
:1001900000480047850200082804002000B589B007
:1001A0000121080200F0C4FA0121042000F066FADF
:1001B0000120019003208DF8080000208DF80B002D
:1001C00001A9364800F06CFE00F0ACFB002007905F
:1001D000039001208DF81100002006900590012069
:1001E0008DF8200000208DF8100003A92C4800F0A5
:1001F000A4FB01212A4800F0EBFB062301220A217F
:10020000274800F025FC09B000BD00B587B00121EA
:10021000480700F07CFA0121084600F02FFA102070
:10022000019003208DF8080000208DF80B0001A933
:100230001C4800F035FE00F0F7FE00200590069007
:100240000390049003A900F0FAFE0121002000F0C1
:1002500013FF07B000BD10B5114800F055FC00BFFA
:1002600002210F4800F072FD0028F9D00C4800F080
:1002700087FC10BD10B50C48008881B2002000F04A
:1002800049FF10BDFFF78AFFFFF7BFFF05E0FFF74B
:10029000E2FF05490860FFF7EDFFF8E700080240BC
:1002A000002001400000024000000020704700BF15
:1002B000FEE700BFFEE700BFFEE700BFFEE77047B6
:1002C0007047704770470000F948006840F001002F
:1002D000F74908600020F64908310860F4480068D2
:1002E000F4490840F2490860F348091D0860F348E2
:1002F000EF4984310860F0481038091D0860EC4867
:10030000006820F48020EA4908600020E8490C31A8
:100310000860E7498C31086070470021E44A921C6C
:10032000117011460870704710B501460022002375
:1003300000204A11012A02D1DD4C236808E0022A7C
:1003400003D1DB4C7034236802E0D94C7434236849
:1003500001F01F02012494401C4201D0012000E062
:10036000002010BD38B5002000900024002500BFFB
:100370003120FFF7D9FF05460098401C00900098F7
:10038000B0F5A04F01D0002DF2D03120FFF7CCFF07
:1003900008B1012400E00024204638BD01460020B9
:1003A000C34A106820F0F80040EAC10010607047AE
:1003B000C349086070470021BD4A70321170117046
:1003C000012802D004280AD104E00121B84A703281
:1003D000117005E00521B64A7032117000E000BFCF
:1003E00000BF7047B7490860704770B5049C41EA88
:1003F00082150126C6EB530645EA0645054345EA44
:100400000465AB4E361D356070BDAD49086670475A
:10041000820142EA0172A64B84331A607047A849F0
:100420008866704710B5830143EA016343EA0273AB
:100430009F4C8834236010BDA14908677047A049CC
:10044000C864704702460020994B0833186820F0B2
:10045000EC6042EA01031843954B0833186070477B
:1004600002460020924B0833186820F0784042EA98
:10047000010318438E4B0833186070470146002073
:100480008B4A0832106820F0030008431060704760
:1004900087480830006800F00C00704701460020D3
:1004A000834A0832106820F0F0000843106070475B
:1004B000014600207E4A0832106820F4E0500843CC
:1004C0001060704701460020794A0832106820F415
:1004D000604040EAC10010607047F0B50021002282
:1004E0000024022500260223714F08373F6807F0D9
:1004F0000C0121B1042905D0082937D105E0724F3C
:10050000076036E0714F076033E0694F3F1D3F6879
:10051000C7F38056664F3F1D3F6807F03F036EB13B
:100520006A4FB7FBF3F7DFF888C10CF1040CDCF875
:1005300000C0CCF3881C07FB0CF40CE0624FB7FB47
:10054000F3F7DFF86CC10CF1040CDCF800C0CCF35D
:10055000881C07FB0CF4564F3F1D3F68C7F301474B
:100560007F1C7D00B4FBF5F7076002E0564F076083
:1005700000BF00BF4E4F08373F6807F0F001090980
:10058000534F7A5C0768D7404760494F08373F6848
:1005900007F4E051890A4E4F7A5C4768D74087607C
:1005A000434F08373F6807F46041490B484F7A5C76
:1005B0004768D740C760F0BD002100F44072B2F533
:1005C000407F0AD13A4A0832116821F4F811414AB1
:1005D00002401143364A08321160354A70321268BF
:1005E000C0F30B031A43324B70331A60704735491E
:1005F00044390860704733494039086070473649CC
:100600000860704701460020294A8C32106820F4A7
:10061000401008431060704701460020244A8C3285
:10062000106820F440000843106070470146002025
:100630001F4A8C32106820F01F004A1E10431C4ACB
:100640008C321060704701460020194A8C321068C5
:1006500020F4F8504A1E40EA0220154A8C321060FD
:10066000704701460020124A8C32106820F4403056
:1006700008431060704719490860704739B10C4A47
:100680003032126802430A4B30331A6006E0084ADF
:10069000303212688243064B30331A607047F9B12A
:1006A000034A343212680243014B34331A601CE0AF
:1006B00000380240FFFFF6EA10300024003000202E
:1006C00000004742800E47420024F40000127A00E6
:1006D00004000020FFFCFF0F5C014742E01147428D
:1006E0008F4A126882438E4B1A60704739B18C4A28
:1006F000121D126802438A4B1B1D1A6006E0884ACD
:10070000121D12688243864B1B1D1A60704739B157
:10071000834A0C3212680243814B0C331A6006E0A4
:100720007F4A0C32126882437D4B0C331A6070474B
:1007300039B17B4A103212680243794B10331A6088
:1007400006E0774A103212688243754B10331A6004
:10075000704739B1724A243A12680243704B243B05
:100760001A6006E06E4A243A126882436C4B243BBE
:100770001A60704739B16A4A203A12680243684BDE
:10078000203B1A6006E0664A203A12688243644BB6
:10079000203B1A60704739B1614A1C3A1268024323
:1007A0005F4B1C3B1A6006E05D4A1C3A12688243AC
:1007B0005B4B1C3B1A60704739B1594A143A1268B6
:1007C0000243574B143B1A6006E0554A143A12682C
:1007D0008243534B143B1A60704739B1504A103A68
:1007E000126802434E4B103B1A6006E04C4A103A26
:1007F000126882434A4B103B1A60704739B1484A2D
:100800001C3212680243464B1C331A6006E0444A0D
:100810001C3212688243424B1C331A60704739B154
:100820003F4A2032126802433D4B20331A6006E0F3
:100830003B4A203212688243394B20331A6070479A
:1008400039B1374A243212680243354B24331A60D7
:1008500006E0334A243212688243314B24331A6053
:10086000704739B12E4A2C32126802432C4B2C337C
:100870001A6006E02A4A2C3212688243284B2C3335
:100880001A60704739B1264A303212680243244B4D
:1008900030331A6006E0224A303212688243204B1D
:1008A00030331A607047012808D11D493C3109686E
:1008B00041F008011A4A3C32116007E018493C3106
:1008C000096821F00801164A3C321160704739B1BD
:1008D000134A273A12780243114B273B1A7006E05D
:1008E0000F4A273A127882430D4B273B1A70704704
:1008F0000B484030006840F0807009494031086082
:10090000704701460020064A283A12680A4201D080
:10091000012000E000207047014926390870704727
:100920003438024010B501210802FFF756FF0021BC
:100930004FF48070FFF751FF10BD30B50246002024
:1009400000235068F84C20400D790C6844EA0524D7
:10095000204350609068F54C2040D1E903542C436B
:100960008D682C434D7944EA450420439060D06A59
:1009700020F470000C7D641EE4B2234340EA03506F
:10098000D06230BD00210160017141718160C160A0
:1009900001610121017570470021E54A1168E54AAE
:1009A00001EA0201D0E9002342EA0302836842EA35
:1009B0000302C36842EA030242EA0101DE4AC2F8C6
:1009C000041370470021016041608160C16070477D
:1009D00021B1826842F00102826003E0826822F065
:1009E0000102826070470A4600214168D34B1940DA
:1009F0001143416070474162826270470A4600219C
:100A0000416821F01F0111434160704738B1C84966
:100A1000096841F40001C84AC2F8041306E0C44959
:100A2000096821F40001C44AC2F80413704738B1C0
:100A3000BF49096841F48001BF4AC2F8041306E0C7
:100A4000BB49096821F48001BB4AC2F8041370470E
:100A5000F0B504460D4600200021092D11DDE068A7
:100A6000A5F10A0606EB4607072606FA07F18843B2
:100A7000A5F10A0606EB460603FA06F10843E06014
:100A80000CE0206905EB4507072606FA07F18843C5
:100A900005EB450603FA06F108432061072A0FDA41
:100AA000606B561E06EB86071F2606FA07F1884381
:100AB000561E06EB860605FA06F10843606322E03F
:100AC0000D2A0FDA206BD61F06EB86071F2606FAC3
:100AD00007F18843D61F06EB860605FA06F10843A0
:100AE000206310E0E06AA2F10D0606EB86071F26E0
:100AF00006FA07F18843A2F10D0606EB860605FA11
:100B000006F10843E062F0BD816841F080418160F8
:100B10007047014600208A6812F0804F01D0012002
:100B200000E00020704721B1826842F48062826058
:100B300003E0826822F480628260704721B182689B
:100B400042F00202826003E0826822F002028260C8
:100B5000704710B50A4600210023416821F4604126
:100B6000531E41EA4331416010BD21B1426842F455
:100B70000062426003E0426822F400624260704713
:100B80000146C86C80B270476D480068704721B15B
:100B9000826842F48072826003E0826822F480728C
:100BA0008260704721B1826842F40072826003E083
:100BB000826822F400728260704738B15C4909682B
:100BC00041F400515C4AC2F8041306E05849096830
:100BD00021F40051584AC2F804137047F0B5044696
:100BE0001546002000220026092911DDE068A1F148
:100BF0000A0707EB470C072707FA0CF29043A1F10D
:100C00000A0707EB470703FA07F21043E0600CE01E
:100C1000206901EB410C072707FA0CF2904301EB26
:100C2000410703FA07F210432061A06BC0F301569D
:100C3000EF1C06F1010CA7EB0C0707EB870C1F2735
:100C400007FA0CF29043EF1C06F1010CA7EB0C071E
:100C500007EB870701FA07F21043A063F0BD10B558
:100C60000A4600210023816B21F44011531E41EA02
:100C70000351816310BD08B5002300930090009BD1
:100C80000B440093009B1A6008BD0A46002181684E
:100C900021F470211143816070470A460021816868
:100CA00021F44011114381607047816841F4800153
:100CB00081607047014600208A6812F4800F01D0DD
:100CC000012000E00020704721B1426842F48062B8
:100CD000426003E0426822F480624260704721B1C2
:100CE000426842F48052426003E0426822F480523B
:100CF0004260704708B5024600200090009201F162
:100D00002800009B184400900098006880B208BD3D
:100D100010B50B460021D9B2012404FA01F18AB1C1
:100D200044680C43446010E0FFFEFFFCFDF7FFC089
:100D300004230140E030FCFF00200140FFFD3FFFA5
:100D40000823014044688C43446010BD02460020E3
:100D500013680B4201D0012000E000207047CA4315
:100D60000260704770B502460020002300240B1279
:100D7000556801268E4005EA060415681D4202D01A
:100D80000CB1012000E0002070BD00220A12D34304
:100D90000360704710B504469848844208D1012189
:100DA0000846FFF7D6FC00210120FFF7D2FC76E0D1
:100DB0009348844208D101210220FFF7CAFC002198
:100DC0000220FFF7C6FC6AE08E48844208D1012168
:100DD0000420FFF7BEFC00210420FFF7BAFC5EE010
:100DE0008948844208D101210820FFF7B2FC002184
:100DF0000820FFF7AEFC52E08448844208D101216C
:100E00001020FFF7A6FC00211020FFF7A2FC46E00F
:100E10007F48844208D101212020FFF79AFC00215D
:100E20002020FFF796FC3AE07A48844208D101215D
:100E30004020FFF78EFC00214020FFF78AFC2EE0C7
:100E40007548844208D101218020FFF782FC0021EF
:100E50008020FFF77EFC22E07048844208D1012107
:100E60008015FFF776FC0021A015FFF772FC16E055
:100E70006B48844208D101214015FFF76AFC00212C
:100E80006015FFF766FC0AE06648844207D101213D
:100E90000015FFF75EFC00212015FFF75AFC10BD7E
:100EA000F0B50A4600210023002400BF3DE00125E3
:100EB00005FA01F3156805EA03049C4234D105687C
:100EC0004F000326BE40B543056015794E00B5407E
:100ED0000668354305601579012D02D01579022D7C
:100EE00016D185684F000326BE40B543856055790D
:100EF0004E00B540866835438560456801268E40C2
:100F0000B5434560456896798E40B6B23543456035
:100F1000C5684F000326BE40B543C560D5794E0075
:100F2000B540C6683543C560491C1029BFD3F0BD24
:100F30004FF6FF7101600021017141718171C17132
:100F4000704708B54FF480320092009A0A4300922D
:100F5000009AC261C161009AC261C2690092C2690D
:100F6000009208BD0246002013690B4201D0012007
:100F700000E0002070470146086980B270470246D1
:100F8000002053690B4201D0012000E0002070478F
:100F90000146486980B270470183704741837047BA
:100FA0000AB1018300E041837047416170474269A3
:100FB0004A4042617047F0B5002300244D07ED0E12
:100FC00002FA05F3CE1000F1200555F826504E0721
:100FD000F70E0F26BE40B543CF1000F1200646F8AD
:100FE0002750CE1000F1200555F8265045EA03049D
:100FF000CE1000F1200545F82640F0BD000002406B
:101000000004024000080240000C024000100240B0
:101010000014024000180240001C02400020024060
:10102000002402400028024010B501214807FFF7C4
:10103000C3FB00214FF00050FFF7BEFB10BD30B5E1
:10104000002200237B4C226840F6FE748440A243B9
:10105000D1E900452C438D682C43CD6844EA050353
:1010600003FA00F42243734C226030BD002101607A
:1010700041608160C160704739B16E4A12680123D6
:1010800083401A436B4B1A6006E06A4A12680123D8
:1010900083409A43674B1A60704710B551B1654A57
:1010A000121D126804090123A3401A43614B1B1D42
:1010B0001A6009E05F4A121D126804090123A34067
:1010C0009A435C4B1B1D1A6010BD40B15949091D64
:1010D000096841F00301574A121D116007E05549A4
:1010E000091D096821F00301524A121D1160704761
:1010F00010B53AB14F4B1B6801FA00F423434D4C35
:10110000236006E04B4B1B6801FA00F4A343494CF3
:10111000236010BD08B500220092464A009200F1FB
:101120000802009B1A440092009A116008BD08B59D
:10113000002200923F4A009200F11402009B1A44E0
:101140000092009A116008BD30B5002400230828E1
:1011500002D142EA012401E042EA0144354B00F1A8
:1011600020052B441C6030BD08B5014600200090CE
:10117000304800902C2000EB9100009A1044009021
:101180000098006880B208BD41B12A4A12684FF445
:10119000805383401A43274B1A6007E0254A1268A0
:1011A0004FF4805383409A43224B1A60704710B526
:1011B0003AB1204B1B6801FA00F423431D4C236015
:1011C00006E01C4B1B6801FA00F4A343194C236092
:1011D00010BD10B502460020164B34331B6801FACF
:1011E00002F4234201D0012000E0002010BD01FAEA
:1011F00000F2104B34331A60704730B502460020BD
:1012000000230C4C246801FA02F504EA0503094C9A
:101210003434246801FA02F52C4202D00BB10120CB
:1012200000E0002030BD01FA00F2024B34331A60B6
:1012300070470000007400400CB500200190009041
:101240007548006840F480307349086000BF7248F8
:10125000006800F4003000900198401C0190009854
:1012600018B90198B0F5A04FF1D16B48006810F49F
:10127000003F02D00120009001E000200090009883
:10128000012845D164484030006840F080506249F0
:10129000403108606148006840F440405F490860A0
:1012A0005D48083000685C490831086008460068FD
:1012B00040F4004008600846006840F4A050086010
:1012C0005748091F0860081F006840F08070091F18
:1012D000086000BF5048006810F0007FFAD040F26C
:1012E0000560504908604C480830006820F0030051
:1012F0004949083108600846006840F0020008606B
:1013000000BF45480830006800F00C000828F8D1FC
:101310000CBD10B54448006840F4700042490860B4
:101320003D48006840F001003B49086000203A4910
:1013300008310860384800683C4908403649086070
:101340003B48091D0860081F006820F48020091F21
:101350000860002030490C310860FFF76DFF4FF046
:10136000006031498039086010BD70B5002000224E
:10137000022300240221284D08352D6805F00C00B9
:1013800020B1042806D0082834D107E0294D2A4E80
:10139000356033E0294D284E35602FE01E4D2D1D60
:1013A0002D68C5F380541C4D2D1D2D6805F03F019F
:1013B00054B1224DB5FBF1F5174E361D3668C6F314
:1013C000881605FB06F209E01A4DB5FBF1F5124E41
:1013D000361D3668C6F3881605FB06F20E4D2D1D28
:1013E0002D68C5F301456D1C6B00B2FBF3F5124E81
:1013F000356003E00F4D104E356000BF00BF064D55
:1014000008352D68C5F303150D4E705D0A4D2D6826
:10141000C540094E356070BD003802400070004084
:1014200008544007003C024088ED00E0FFFFF6FE54
:10143000103000240024F4001400002000127A0070
:10144000180000200648804706480047FEE7FEE7F0
:10145000FEE7FEE7FEE7FEE7FEE7FEE7FEE7FEE764
:101460001313000889010008064C074D06E0E068E8
:1014700040F0010394E8070098471034AC42F6D3DB
:10148000FEF786FEAC140008CC14000802E008C881
:10149000121F08C1002AFAD170477047002001E0EE
:1014A00001C1121F002AFBD170470000CC140008B4
:1014B00000000020280000008C140008F41400082C
:1014C00028000020000400009C1400080000000018
:1014D00000000000010203040102030406070809DA
:1014E000007A030A0000000000000000010203046B
:0414F00006070809DA
:040000050800018965
:00000001FF
